:100000000C9439010C9461010C9461010C94610110
:100010000C9461010C9461010C9461010C946101D8
:100020000C9461010C9461010C941B0B0C94AC0CAE
:100030000C9461010C9461010C9461010C946101B8
:100040000C9461010C9461010C9461010C946101A8
:100050000C9461010C9461010C9461010C94D10A1F
:100060000C9461010C9461010C9461010C94610188
:100070000C9461010C9461010C9461010C94610178
:100080000C9461010C9461010C9461010C94610168
:100090000C9407050C9461010C9461010C946101AE
:1000A0000C9461010C9461010C9461017B017E014F
:1000B0006D01710177019F019F019F0182018601FE
:1000C0008A01900194019F019A0100000000000044
:1000D00000002A2B280000000000000000000000A3
:1000E000000000000000000000002C9EB4A0A1A2AF
:1000F000A434A6A7A5AE362D3738271E1F202122EF
:1001000023242526B333B62EB7B89F8485868788E7
:10011000898A8B8C8D8E8F909192939495969798D7
:10012000999A9B9C9D2F3130A3AD35040506070895
:10013000090A0B0C0D0E0F101112131415161718B7
:10014000191A1B1C1DAFB1B0B5000000000024003F
:1001500027002A002D0030000000000025002800A4
:100160002B002E0031000000000023002600290093
:100170002C002F00040404040403040502020202FC
:100180000403020202020606060606060404020230
:100190000204040408020110408040102040804006
:1001A00080080204018040201002011080102040CD
:1001B00040200000000200090F0000030401000CB1
:1001C000000000000000000000000000000000002F
:1001D0000005010906A1018502050719E029E715B7
:1001E0000025017501950881029501750881039527
:1001F000067508150025650507190029658100C0E9
:10020000080B0002020201000904000001020200C2
:100210000005240010010524010101042402060543
:1002200024060001070581031000400904010002B3
:100230000A00000007050202400000070583024093
:1002400000000403090412010002EF0201404123EF
:10025000418000010102030141726475696E6F20E3
:100260004C4C430041726475696E6F2059756E0085
:100270002E1311241FBECFEFDAE0DEBFCDBF12E098
:10028000A0E0B1E0EAE7F7E202C005900D92A838DD
:10029000B107D9F724E0A8E8B2E001C01D92AD3360
:1002A000B207E1F711E0C9E3D1E004C02197FE01F4
:1002B0000E94A913C833D107C9F70E94DC0E0C9421
:1002C000BB130C94000090E0FC013197EF30F10576
:1002D000B0F5EA5AFF4F0C94A913809180008F77F4
:1002E00003C0809180008F7D80938000089580916D
:1002F0008000877FF9CF84B58F7702C084B58F7D6A
:1003000084BD0895809190008F7707C08091900000
:100310008F7D03C080919000877F80939000089527
:100320008091C0008F7703C08091C0008F7D809343
:10033000C00008958091C200877F8093C200089515
:10034000CF93DF93282F30E0F901EE54FE4F8491D4
:10035000F901ED56FE4FD491F901EC58FE4FC491CE
:10036000CC2391F081110E946301EC2FF0E0EE0F9D
:10037000FF1FEA59FE4FA591B491EC91ED2381E066
:1003800090E021F480E002C080E090E0DF91CF9126
:1003900008951F93CF93DF93282F30E0F901EE5497
:1003A000FE4F8491F901ED56FE4FD491F901EC58BE
:1003B000FE4FC491CC23C9F0162F81110E94630116
:1003C000EC2FF0E0EE0FFF1FE85AFE4FA591B4911D
:1003D0008FB7F894111105C09C91ED2FE095E9239A
:1003E00002C0EC91ED2BEC938FBFDF91CF911F9169
:1003F0000895CF93DF9390E0FC01ED56FE4F2491DA
:10040000FC01EC58FE4F8491882361F190E0880F45
:10041000991FFC01E65BFE4FC591D491FC01E85A9F
:10042000FE4FA591B491611109C09FB7F8948881DE
:10043000209582238883EC912E230BC0623061F4D7
:100440009FB7F8943881822F809583238883EC911D
:100450002E2B2C939FBF06C08FB7F894E8812E2BCC
:1004600028838FBFDF91CF910895DC01FB011296A5
:100470008C91129790E02481358182179307D1F4F3
:1004800091818081813A31F481E0913091F0933013
:1004900089F411C0813271F49B3021F482811F965E
:1004A0008C9305C09A3031F4828150968C9381E010
:1004B0000895089580E00895DC01FB0188E48083BD
:1004C00089E4818384E482831D969C911D979F70AB
:1004D0009F5B93831D968D919C911E9724E096952A
:1004E00087952A95E1F78F708F5B848385E0089567
:1004F000FC0182818F5BFB01808381E0089585EDA3
:100500008093BC008091BC0084FDFCCF10928603D8
:1005100008954091AA02262F30E0240F311D213288
:100520003105DCF4209186032430C9F4FC0180E01D
:1005300090E0861758F43091AA022191DC01A85767
:10054000BD4FA30FB11D2C930196F3CF8091AA024A
:10055000680F6093AA0280E0089581E0089582E028
:1005600008950895E0913F0380913E03E81730F429
:10057000F0E0E05CFC4F808190E008958FEF9FEF0A
:10058000089590913F0380913E03981750F4E92F0E
:10059000F0E0E05CFC4F208130E09F5F90933F03F0
:1005A00002C02FEF3FEFC901089580913E0390E014
:1005B00020913F03821B91090895CF92DF92EF9221
:1005C000FF920F931F93CF93DF937C01262F972FDA
:1005D0008A0180918703882391F0C62FD72F6E015F
:1005E000C40ED51ECC15DD0571F06991D701ED91D2
:1005F000FC910190F081E02DC7010995F3CF642FA4
:10060000822F0E948902C801DF91CF911F910F9123
:10061000FF90EF90DF90CF900895CF93DF931F92DC
:10062000CDB7DEB76983209187032223D1F02091D3
:10063000A903203240F021E030E0FC013383228323
:1006400080E090E015C080918803E82FF0E0E75744
:10065000FC4F998190838F5F809388038093A903D7
:1006600005C061E0CE0101960E94890281E090E020
:100670000F90DF91CF9108950E94AF13EF92FF92F8
:100680000F931F93CF93DF93FB012081213851F506
:100690002381223239F5DC0112962C9130E044811D
:1006A000558142175307F1F4EC010B851C85E12CB1
:1006B000F12C0115110591F0F801448155816281F9
:1006C000738180E80E948D0B8F3FFFEF9F0769F0D9
:1006D000E80EF91ED8010D911C91EBCF81E08F87B8
:1006E000C70105C080E090E002C08FEF9FEFDF916F
:1006F000CF911F910F91FF90EF900895CF93DF93CB
:10070000CDB7DEB769970FB6F894DEBF0FBECDBF89
:10071000FC01DB018C918F5F8C93BE016F5F7F4F7B
:1007200089E1DB011D928A95E9F729E0298384E0BC
:100730008A8391E09D8383E08E832A8721E22B8741
:100740009C879D879F8722E2288B27E02B8B25E0C3
:100750002C8B8E8B20E430E0388F2F8B998F828109
:100760008B8395858685998B8A8B838180688D8B19
:1007700049E150E080E00E948D0B69960FB6F89435
:10078000DEBF0FBECDBFDF91CF9108958091E00213
:1007900081116BC081E08093D3028093D40229ED54
:1007A00032E03093D6022093D5021092D8021092F4
:1007B000D70227E532E03093D0022093CF02109287
:1007C000DB021092DA021092DD021092DC028093BA
:1007D000DE028093DF0281EC8093D9020E94660CD6
:1007E000FC0121818091D30290E0820F911D089736
:1007F00024F081E08093E00238C0A281B381109799
:1008000029F48FEC92E0938382830EC018968D9129
:100810009C911997009711F0DC01F8CF8FEC92E0D2
:1008200019969C938E93189780818093D102818131
:100830008093D20290818091D402890F808380E0DE
:100840009091D3028917A8F6A091D502B091D60253
:10085000A80FB11D9C91A181B0E0A85BBD4F9C93F6
:1008600091819F5F91838F5FEBCF8FEC92E0089532
:10087000CF93DF93DC01683810F0685825C0E62F6D
:10088000F0E067FF12C0E058F10981E090E001C09C
:10089000880FEA95EAF7809514969C91149789231E
:1008A00014968C93149760E00FC0E653FF4F649149
:1008B000662311F167FF08C014968C9114978D7F01
:1008C00014968C9314976F77FD01369686E0662315
:1008D00021F09081961301C01082815031968111D0
:1008E000F6CFED010E94C603BE016C5F7F4F0E94F0
:1008F000060981E090E002C080E090E0DF91CF91B6
:100900000895CF93DF93DC01683810F068582DC04C
:10091000E62FF0E067FF11C0E058F10981E090E0B8
:1009200001C0880FEA95EAF714969C911497892BD9
:1009300014968C93149760E018C0E653FF4F6491AF
:10094000611109C081E090E013969C938E931297F9
:1009500080E090E043C067FF08C014968C91149724
:10096000826014968C9314976F7716968C911697D5
:10097000861751F117968C911797861729F11896BB
:100980008C911897861701F119968C9119978617F3
:10099000D9F01A968C911A978617B1F01B968C9104
:1009A0001B97861789F0FD01369680E090E0219133
:1009B000211105C0FD01E80FF91F668305C00196EE
:1009C00086309105A1F7BECFED010E94C603BE019E
:1009D0006C5F7F4F0E94060981E090E0DF91CF912C
:1009E0000895EF92FF921F93CF93DF93EC01162FA0
:1009F0000E9481047C01612FCE010E943804C7014E
:100A00009927DF91CF911F91FF90EF9008951F924A
:100A10000F920FB60F9211242F933F934F935F9332
:100A20006F937F938F939F93AF93BF93EF93FF93B6
:100A30008091B900887F803609F49CC068F58832BF
:100A400009F45BC090F4803109F454C038F4882371
:100A500009F4F6C0883009F44DC0F6C0883109F4B5
:100A60004CC0803209F45DC0EFC0803409F468C026
:100A700048F4803309F455C0883309F0E5C0809309
:100A80008403D8C0803509F44FC0883509F45DC0AF
:100A9000883409F0D9C0D6C0883909F4C7C0A8F491
:100AA000883709F467C038F4883609F463C08037A2
:100AB00009F460C0C9C0883809F4B8C0803909F4A5
:100AC0005FC0803809F0C0C05BC0803B09F486C0BD
:100AD00038F4803A09F466C0883A09F47FC0B4C09B
:100AE000803C09F4A7C0883C09F4A4C0883B09F401
:100AF0008AC0AAC08091610310C090918303809145
:100B00008203981770F5E091830381E08E0F809344
:100B10008303F0E0EE59FC4F80818093BB0085ECAD
:100B200086C0809384038EC0E091830381E08E0FA2
:100B3000809383038091BB00F0E0EE59FC4F8083EB
:100B400090918303809182036EC0E091830381E0E2
:100B50008E0F809383038091BB00F0E0EE59FC4F31
:100B600080838091850381116DC081E08093600353
:100B700084EA61C083E0809386031092CE02CFCFD7
:100B80008091CE02803208F051C0E091CE0281E027
:100B90008E0F8093CE028091BB00F0E0E255FD4FB6
:100BA0008083BDCF85EC8093BC001092860380913A
:100BB000CE02803230F4E091CE02F0E0E255FD4FFB
:100BC00010826091CE0270E0E091AC02F091AD0233
:100BD0008EEA92E009951092CE0236C084E08093AE
:100BE00086031092AB021092AA02E091A802F09143
:100BF000A90209958091AA02811105C081E0809324
:100C0000AA0210928802E091AB0281E08E0F8093DD
:100C1000AB02F0E0E857FD4F80818093BB009091DC
:100C2000AB028091AA02981708F479CF85E88093E7
:100C3000BC000AC085EC8093BC001092860304C0FF
:100C4000109284030E947F02FF91EF91BF91AF91B8
:100C50009F918F917F916F915F914F913F912F91D4
:100C60000F900FBE0F901F901895382F2091A90359
:100C70009091C503213208F049C08091860381110B
:100C8000FCCF42E040938603309385033FEF3093DF
:100C900084031092830320938203A9E8B3E042E621
:100CA00053E0FA013E2F341B321718F43D91319373
:100CB000F9CF1092610320916103990F922B9093C9
:100CC000610390916003913061F410926003909100
:100CD00061039093BB009091BC0093FDF8CF95EC1D
:100CE00001C095EE9093BC00909186039230E1F3A1
:100CF000909184039F3F79F080918403803241F08A
:100D000080918403803331F084E005C081E003C02A
:100D100082E001C083E0109288031092A903109230
:100D200087030895FC0180913D03811103C08FEF7B
:100D30009FEF08959FB7F89482E08093E900209197
:100D4000F20030E01216130614F421E030E0211511
:100D5000310559F0289884E680933C038091F10096
:100D600080838091F200882319F09FBFC901089504
:100D70008BE68093E800F9CFCF93DF931F92CDB736
:100D8000DEB76983DC01ED91FC910280F381E02DF7
:100D900041E050E0BE016F5F7F4F09950F90DF91FA
:100DA000CF91089583E08093E9008091F200882339
:100DB00019F08AE38093E8000895CF93DF931F92A0
:100DC000CDB7DEB7FC018485958597FD05C02FEF73
:100DD0003FEF358724870BC0CE0101960E94920613
:100DE000019719F4898190E002C08FEF9FEF0F9077
:100DF000DF91CF9108950F931F93CF93DF931F92AD
:100E0000CDB7DEB78C01FC018485958597FF0EC0B8
:100E1000CE0101960E949206019719F4298130E0D3
:100E200002C02FEF3FEFF80135872487F801848552
:100E300095850F90DF91CF911F910F910895FC013F
:100E40008485958597FD0BC09FB7F89482E08093C9
:100E5000E9008091F2009FBF90E0019608959FB74E
:100E6000F89482E08093E9008091F2009FBF90E0C7
:100E700008953FB7F8948091380390913903A09179
:100E80003A03B0913B0326B5A89B05C02F3F19F04C
:100E90000196A11DB11D3FBFBA2FA92F982F8827FA
:100EA000820F911DA11DB11DBC01CD0142E0660F55
:100EB000771F881F991F4A95D1F70895CF93DF9325
:100EC000EC0180914702882331F083E00E94B40B4B
:100ED0001816190634F081E090E09B838A8380E045
:100EE00090E0DF91CF910895EF92FF920F931F93BF
:100EF000CF93DF937B01C42F9091AA0321E020932D
:100F000087039093C503109288031092A903682F5A
:100F100088EB93E00E940D0387010C2E000CDD0B83
:100F2000C8018E199F098C179D0744F4F80161913F
:100F30008F0188EB93E00E940D03F2CF81E00E94C5
:100F4000350690E0DF91CF911F910F91FF90EF90C8
:100F50000895AF92BF92CF92DF92EF92FF920F93DC
:100F60001F93CF93DF931F92CDB7DEB76B019091A4
:100F7000AA0321E0209387039093C503109288036E
:100F80001092A903682F88EB93E049830E940D0318
:100F900081E00E943506082F10E0498101151105F6
:100FA00009F065C0242F042E000C330B8091AA0396
:100FB000909186039111FCCF413208F040E291E01C
:100FC00090938603909385035FEF50938403109270
:100FD0008303540F509382039093610390916103B4
:100FE000880F892B8093610380916003813061F4C5
:100FF00010926003809161038093BB008091BC00DC
:1010000083FDF8CF85EC01C085EE8093BC00809114
:1010100086038130E1F380918303841710F44091BB
:101020008303A2E6B3E060E473E0FB018E2F861B2E
:10103000841718F48D918193F9CF10923F03409358
:101040003E03A42EB12CA216B30679F47601C70193
:101050008C199D098A159B0554F488EB93E00E9436
:10106000C102F70181937F01F2CF05E010E0C801D2
:101070000F90DF91CF911F910F91FF90EF90DF9034
:10108000CF90BF90AF900895EF92FF920F931F9370
:10109000CF93DF9300D0CDB7DEB7E62E8A01892B40
:1010A00021F095E1F92E83E103C084E1F82E82E17D
:1010B00041E0BE016F5F7F4F0E94A907298130E0A8
:1010C0000130110549F4A80102C0440F551FEA94EC
:1010D000E2F7422B532B0BC041E050E002C0440F1B
:1010E000551FEA94E2F740955095422353234983D4
:1010F00041E0BE016F5F7F4F8F2D0E9474070F90FC
:101100000F90DF91CF911F910F91FF90EF90089575
:10111000CF92DF92EF92FF920F931F93CF93DF93C3
:1011200000D000D01F92CDB7DEB7D62E542F892B1A
:1011300029F09DE0F92EEE24E39403C08CE0F82E14
:10114000E12C41E0BE016E5F7F4F8E2D5D830E94DA
:10115000A9070A8110E041E0BE016D5F7F4F8F2D2E
:101160000E94A907EB81F0E021E030E002C0220FED
:10117000331FDA94E2F7C901809590956C01CE2275
:10118000DF225D81513019F40823192307C0022B97
:10119000132B523019F46901CE2ADF2A0A8341E069
:1011A000BE016E5F7F4F8E2D0E947407CB8241E09F
:1011B000BE016D5F7F4F8F2D0E9474070F900F90BF
:1011C0000F900F900F90DF91CF911F910F91FF9093
:1011D000EF90DF90CF900895CF92DF92EF92FF9241
:1011E0000E9439076B017C010E943907DC01CB01A9
:1011F0008C199D09AE09BF09883E9340A105B10530
:1012000098F3FF90EF90DF90CF900895CF92DF9208
:10121000EF92FF920F931F93CF93DF931F92CDB75F
:10122000DEB77C016B0182E0898341E050E0BE01C2
:101230006F5F7F4FF70183810E94B40B8C0197FD94
:101240000CC0F701838148E050E0B60180640E9441
:10125000B40B97FD02C0800F911F0F90DF91CF91CB
:101260001F910F91FF90EF90DF90CF9008952F92F4
:101270003F924F925F926F927F928F929F92AF9226
:10128000BF92CF92DF92EF92FF920F931F93CF9373
:10129000DF932C0149018B01EA01A12CB12C120131
:1012A0002A0C3B1C3E01C12CD12CE12CF12CF1016C
:1012B00081911F01811126C0F801EE0DFF1D808173
:1012C000813009F048C0F30120813181203F310590
:1012D00051F48093C40341E050E067E070E081E0A6
:1012E00090E00E9444088091C403882321F0F40117
:1012F000EC0DFD1D01C0F30160818CEA93E00E94BA
:10130000810429C0813039F5F801EE0DFF1D80817F
:10131000811121C0FE01EC0DFD1D60817181603FD6
:10132000710569F41092C40340E050E067E070E09A
:1013300081E090E00E94440881E090E02AC0809122
:10134000C403882321F0F401EC0DFD1D60818CEABB
:1013500093E00E943804FFEFEF1AFF0A82E0C80E04
:10136000D11CE2E06E0E711CF8E0EF16F10409F0FA
:101370009ECF80E1880E911C085F1F4FE8E0AE0E03
:10138000B11C6096F8E2AF16B10409F088CF80E096
:1013900090E0DF91CF911F910F91FF90EF90DF9040
:1013A000CF90BF90AF909F908F907F906F905F9005
:1013B0004F903F902F900895AF92BF92CF92DF92BF
:1013C000EF92FF920F931F93CF93DF93EC018B016A
:1013D0005C0188E2A80EB11C6E0188E0C80ED11C29
:1013E00078018991811106C0F70160818CEA93E050
:1013F0000E943804F2E0EF0EF11CCC15DD0589F7F0
:10140000005F1F4FCA15DB0539F7DF91CF911F91A0
:101410000F91FF90EF90DF90CF90BF90AF90089525
:101420001F93CF93DF9300D0CDB7DEB7182F41E0E5
:10143000BE016F5F7F4F82E10E94A907298130E0E2
:10144000C90102C0959587951A95E2F78170992791
:101450000F900F90DF91CF911F9108954091350427
:1014600050913604209133043091340442175307CD
:10147000B4F49091E8009570E1F39091E80092FD4A
:1014800019C08093F1008091350490913604019643
:101490008F739927892B19F48EEF8093E800809140
:1014A0003504909136040196909336048093350468
:1014B00081E0089580E00895CF92DF92EF92FF924D
:1014C0000F931F93CF93DF931F92CDB7DEB7182FE3
:1014D000062FE42E862F880F8E5F99830E942E0A96
:1014E00083E00E942E0AF12EC12E9981D92E8C2DD7
:1014F0008F19801798F4F601E7FE02C0849101C0AD
:1015000080810E942E0A182F80E00E942E0A8123DB
:10151000FFEFCF1ADF0A8111EACF01C081E00F90FF
:10152000DF91CF911F910F91FF90EF90DF90CF90BF
:101530000895615030F02091F100FC012083019664
:10154000F8CF289884E680933C030895CF92DF92E9
:10155000EF92FF920F931F93CF93DF936C017A0169
:101560008B01C0E0D0E0CE15DF0589F0D8016D9188
:101570008D01D601ED91FC910190F081E02DC60125
:101580000995892B11F47E0102C02196ECCFC70189
:10159000DF91CF911F910F91FF90EF90DF90CF904F
:1015A00008951F920F920FB60F9211242F933F931D
:1015B0008F939F93AF93BF938091390490913A0496
:1015C000A0913B04B0913C043091380423E0230FF8
:1015D0002D3720F40196A11DB11D05C026E8230F6B
:1015E0000296A11DB11D2093380480933904909375
:1015F0003A04A0933B04B0933C048091380390914B
:101600003903A0913A03B0913B030196A11DB11D8E
:101610008093380390933903A0933A03B0933B032C
:10162000BF91AF919F918F913F912F910F900FBEDE
:101630000F901F9018951F920F920FB60F921124C2
:101640008F939F938091E1009091E100937F90931D
:10165000E10083FF0FC01092E90091E09093EB004E
:101660001092EC0092E39093ED0010923D0398E00D
:101670009093F00082FF20C093E09093E900909156
:10168000F200992319F09AE39093E80090913704BF
:10169000992339F09091370491509093370499230E
:1016A00089F190913C03992339F090913C0391503A
:1016B00090933C03992341F184FF10C08091E20094
:1016C0008E7E81608093E2008091E1008F7E809326
:1016D000E100809126048E7E806111C080FF16C0DB
:1016E0008091E2008E7E80618093E2008091E10033
:1016F0008E7E8093E100809126048E7E81608093AF
:10170000260404C05D9ACDCF289AD6CF9F918F91A1
:101710000F900FBE0F901F901895DF92EF92FF92DF
:101720000F931F93CF93DF93D82E8A017B01E40E92
:10173000F51EEB01CE15DF0571F0D7FE03C0FE01EB
:10174000849101C088810E942E0A21968111F2CFD6
:101750008FEF9FEF01C0C801DF91CF911F910F91D3
:10176000FF90EF90DF9008956F927F929F92AF92DB
:10177000BF92CF92DF92EF92FF920F931F93CF937E
:10178000DF9300D01F92CDB7DEB78B0190913D0360
:10179000911103C08FEF9FEF88C09091260490FFB6
:1017A00005C09091E00092609093E0003A01F12C26
:1017B0009AEFE92E382F3770C32E20E4B22E982FDF
:1017C0009072A92E382F3074932E3AE3D32E6114E1
:1017D000710409F463C09FB7F894C092E9002091A6
:1017E000E80025FF06C02091F2003B2D321B232F7D
:1017F00001C020E09FBF21110CC0EA94EE2051F2FD
:101800004A835B8389830E94EC084A815B818981DA
:10181000DECF622F70E0661677060CF4262D9FB798
:10182000F894C092E9003091E80035FF35C0622F8E
:1018300070E0661A770AAA2029F02150A8F01092C9
:10184000F100FBCFF80187FF07C0215058F0349119
:101850003093F1003196F9CF215020F0319130933F
:10186000F100FACF060F171FFF2019F0D092E80001
:101870000BC02091E80025FD09C0D092E800FF24AC
:10188000F3946114710441F0F12C06C061147104E9
:1018900019F49110D092E8009FBF99CFF1109BCF1F
:1018A0005D9884E680933704CA010F900F900F90E3
:1018B000DF91CF911F910F91FF90EF90DF90CF902C
:1018C000BF90AF909F907F906F90089580912B0470
:1018D00081110DC082E08093270484E08093280466
:1018E00010922A041092290481E080932B0487E24D
:1018F00094E008950F931F93CF93DF931F92CDB77A
:10190000DEB782E0898342E450E060E072E080E884
:101910000E948D0B0E94660CDC0112960D911C91A9
:1019200013970115110569F0D801ED91FC91028022
:10193000F381E02DBE016F5F7F4FC801099597FFCE
:1019400007C089810F90DF91CF911F910F9108956A
:10195000F80100851185E5CF1F920F920FB60F9207
:101960001124CF92DF92EF92FF920F931F932F9348
:101970003F934F935F936F937F938F939F93AF9317
:10198000BF93EF93FF93CF93DF93CDB7DEB76C9701
:10199000DEBFCDBF1092E9008091E80083FFEDC16A
:1019A00068E0CE0145960E94990A82EF8093E80094
:1019B0008D8987FF05C09091E80090FFFCCF03C0A0
:1019C0009EEF9093E800982F907609F0C6C09E890C
:1019D0002F89188D91110CC0803829F4809125042D
:1019E0008093F10002C01092F1001092F10048C102
:1019F000422F50E0512B913051F4811141C14130BF
:101A0000510509F03DC1809125048D7F0BC09330B5
:101A100061F4811135C14130510509F031C1809126
:101A200025048260809325042BC1953041F4809178
:101A3000E80080FFFCCF20682093E30021C19630AE
:101A400009F05FC0EB8CFC8C1092E9001092360418
:101A500010923504123091F5109234041092330430
:101A60000E947A0C99E0BE016F5F7F4FDB01E92F86
:101A70001D92EA95E9F799831A8391E09E8390EA93
:101A800098879AEF99872091350430913604275F23
:101A90003F4F3C832B838D831092E90010923604D4
:101AA00010923504F0923404E092330449E050E09F
:101AB00080E00E948D0B0E947A0CE2C0F092340408
:101AC000E09233040E94660CDC011296ED90FC90CB
:101AD0001397E114F10409F4C0C0D701ED91FC9112
:101AE0000480F581E02DBE016B5E7F4FC701099533
:101AF000009719F00CF0C4C0C7C0F701E084F1846E
:101B0000E8CF973009F4C0C0983021F481E0809389
:101B1000F100B6C0993009F0B3C0837009F0B4C0C9
:101B2000E9E4F2E081E021E036E39081992361F07D
:101B30008093E9002093EB0091919093EC00309317
:101B4000ED008F5F873089F78EE78093EA0010926F
:101B5000EA008F8980933D0393C08B8D9C8D1092FA
:101B6000E900109236041092350490933404809367
:101B70003304898D811156C08E899D89913A59F41B
:101B8000813209F081C047E050E060E472E080E01B
:101B90000E948D0B75C0913209F076C0833289F4B2
:101BA000888D90E0982F88272F89822BA0E0B0E0C5
:101BB00080934F0290935002A0935102B09352022F
:101BC0005FC0803269F48091E80082FFFCCF67E05B
:101BD00080E492E00E94990A8BEF8093E80006C0AF
:101BE000823209F04DC08F8980934702809124048E
:101BF000882319F0EEEFFAE002C0E0E0F8E080910F
:101C0000400290914102A0914202B0914302803B78
:101C10009440A105B10509F07BC08091470280FF87
:101C200093C076C00E94660CDC0112960D911C9147
:101C300013970115110541F1D801ED91FC91019027
:101C4000F081E02DBE016B5E7F4FC80109958111C7
:101C500017C0F80100851185ECCF113009F44EC092
:101C6000133091F48F89882309F445C0823081F4C0
:101C700040E86BE084E692E00E945C0A882321F051
:101C80008EEF8093E80079C081E28093EB0075C00D
:101C9000813029F440E86BE088E592E0EDCF8330B5
:101CA00099F70E94660CDC011296ED90FC90139758
:101CB0008E010F5F1F4F6801E114F10479F0D70125
:101CC000ED91FC910680F781E02DB801C7010995DF
:101CD000080F111DF701E084F184EECFD8011C92AA
:101CE000F60101900020E9F73197BF016C197D09D9
:101CF00040E0C601C1CF62E472E002C066E472E077
:101D00006115710509F2FB01449150E080E840CF74
:101D10000FB6F894A8958091600088618093600068
:101D2000109260000FBEA895EE3F2AE0F20739F04E
:101D30008091FE0A9091FF0A91838083A1CF109237
:101D4000FF0A1092FE0A9CCFEE3F8AE0F80731F0BE
:101D5000808191819093FF0A8093FE0A87E797E73D
:101D6000918380839BE088E10FB6F894A8958093D7
:101D700060000FBE9093600083CF6C960FB6F8940E
:101D8000DEBF0FBECDBFDF91CF91FF91EF91BF912D
:101D9000AF919F918F917F916F915F914F913F9103
:101DA0002F911F910F91FF90EF90DF90CF900F90A8
:101DB0000FBE0F901F901895CF93DF93CDB7DEB76E
:101DC000C055D1090FB6F894DEBF0FBECDBF7894D1
:101DD00084B5826084BD84B5816084BD85B5826030
:101DE00085BD85B5816085BD80916E0081608093E1
:101DF0006E0010928100809181008260809381004A
:101E00008091810081608093810080918000816059
:101E100080938000809191008260809391008091F6
:101E20009100816080939100809190008160809307
:101E300090008091C10084608093C1008091C100B6
:101E400082608093C1008091C10081608093C10055
:101E50008091C30081608093C3008091C000826044
:101E60008093C0008091C20081608093C200809105
:101E70007A00846080937A0080917A0082608093F7
:101E80007A0080917A00816080937A0080917A0054
:101E9000806880937A0010923D031092250410927E
:101EA00026048091D70081608093D70080EA8093D8
:101EB000D80089B5806189BD89B5826089BD09B4C2
:101EC00000FEFDCF0E94EC088091D8008F7C8061DD
:101ED0008093D8008091E000807F8093E000809123
:101EE000E1008E7E8093E1008DE08093E200559AC0
:101EF000209AEEEFFFE7859194918B3F9C4D19F46A
:101F000081E08093240448E250E061E070E080E1E9
:101F100093E00E94B41348E250E061E070E088EE84
:101F200092E00E94B41362E084E00E94F90162E052
:101F300085E00E94F90162E086E00E94F90162E01A
:101F400087E00E94F90162E088E00E94F90162E006
:101F500089E00E94F90162E08AE00E94F90162E0F2
:101F60008BE00E94F90161E087E10E94F90161E0E4
:101F700086E10E94F90161E085E10E94F90161E0DA
:101F800084E10E94F90161E083E10E94F90161E0CE
:101F900087E10E94C90161E086E10E94C90161E018
:101FA00085E10E94C90161E084E10E94C90161E00C
:101FB00083E10E94C90110923F0310923E031092E8
:101FC00088031092A9031092860311E010938503F1
:101FD0001092600361E082E00E94C90161E083E049
:101FE0000E94C9018091B9008E7F8093B9008091D1
:101FF000B9008D7F8093B90088E48093B80085E4B0
:102000008093BC0082E0898341E0BE016F5F7F4F17
:102010008AE00E947407892BC1F519821A821B82FB
:102020001C821D821E821F82188719861A874AE029
:10203000BE016F5F7F4F80E00E94740719821A8291
:1020400042E0BE016F5F7F4F8CE00E9474071A82EE
:10205000198242E0BE016F5F7F4F84E10E947407E6
:1020600042E0BE016F5F7F4F8EE00E94A907898129
:10207000811103C08A81882341F042E0BE016F5F75
:102080007F4F80E10E94A907EBCF42E060E070E063
:1020900080E090E00E94880842E061E070E080E02B
:1020A00090E00E94880842E062E070E080E090E00A
:1020B0000E94880842E063E070E080E090E00E94C7
:1020C000880842E064E070E080E090E00E948808C8
:1020D00042E065E070E080E090E00E94880842E025
:1020E00066E070E080E090E00E94880841E060E0F7
:1020F00070E081E090E00E94880841E061E070E0DB
:1021000081E090E00E94880841E062E070E081E0B8
:1021100090E00E94880841E063E070E081E090E098
:102120000E94880841E064E070E081E090E00E9455
:10213000880841E050E060E070E080E090E00E94BC
:10214000440841E050E061E070E080E090E00E94EF
:10215000440841E050E062E070E080E090E00E94DE
:10216000440841E050E063E070E080E090E00E94CD
:10217000440841E050E064E070E080E090E00E94BC
:10218000440841E050E065E070E081E090E00E94AA
:10219000440840E050E066E070E081E090E00E949A
:1021A000440840E050E067E070E081E090E00E9489
:1021B000440848E250E061E070E0CE0189960E9458
:1021C000B41360E087E10E94C90184E00E94A0018D
:1021D00089A785E00E94A0018AA786E00E94A0014D
:1021E0008BA787E00E94A0018CA788E00E94A00135
:1021F0008DA789E00E94A0018EA78AE00E94A0011D
:102200008FA78BE00E94A00188AB61E087E10E946C
:10221000C90160E086E10E94C90184E00E94A0013A
:1022200089AB85E00E94A0018AAB86E00E94A001F4
:102230008BAB87E00E94A0018CAB88E00E94A001DC
:102240008DAB89E00E94A0018EAB8AE00E94A001C4
:102250008FAB8BE00E94A00188AF61E086E10E9415
:10226000C90160E085E10E94C90184E00E94A001EB
:1022700089AF85E00E94A0018AAF86E00E94A0019C
:102280008BAF87E00E94A0018CAF88E00E94A00184
:102290008DAF89E00E94A0018EAF8AE00E94A0016C
:1022A0008FAF8BE00E94A00121968FAF219761E054
:1022B00085E10E94C90160E084E10E94C90184E0D7
:1022C0000E94A00122968FAF229785E00E94A00174
:1022D00023968FAF239786E00E94A00124968FAFAC
:1022E000249787E00E94A00125968FAF259788E06C
:1022F0000E94A00126968FAF269789E00E94A00138
:1023000027968FAF27978AE00E94A00128968FAF6B
:1023100028978BE00E94A00129968FAF299761E052
:1023200084E10E94C90160E083E10E94C90184E068
:102330000E94A0012A968FAF2A9785E00E94A001F3
:102340002B968FAF2B9786E00E94A0012C968FAF23
:102350002C9787E00E94A0012D968FAF2D9788E0E3
:102360000E94A0012E968FAF2E9789E00E94A001B7
:102370002F968FAF2F978AE00E94A00160968FAFB3
:1023800060978BE00E94A00161968FAF619761E03A
:1023900083E10E94C90120EA31E040EF51E060E1B1
:1023A00073E0CE0189960E9437090197E9F460EA4B
:1023B00071E080E193E00E94DC0960E571E088EE65
:1023C00092E00E94DC0948E250E061E070E080E1C8
:1023D00093E00E94B41348E250E061E070E088EEC0
:1023E00092E00E94B41309C088E2FE01B996A0E110
:1023F000B3E001900D928A95E1F748E250E061E088
:1024000070E0CE0101960E94B41340E050E060E01D
:1024100070E081E090E00E94440880E090E00E943B
:10242000100A898381E090E00E94100A8A8382E08A
:1024300090E00E94100A8B8383E090E00E94100AD3
:102440008C8384E090E00E94100A8D8385E090E008
:102450000E94100A8E8386E090E00E94100A8F830B
:1024600041E050E060E070E081E090E00E944408CC
:1024700040E050E061E070E081E090E00E944408BC
:1024800080E090E00E94100A898781E090E00E943D
:10249000100A8A8782E090E00E94100A8B8783E00E
:1024A00090E00E94100A8C8784E090E00E94100A5D
:1024B0008D8785E090E00E94100A8E871F8641E09C
:1024C00050E061E070E081E090E00E94440840E06C
:1024D00050E062E070E081E090E00E94440880E01B
:1024E00090E00E94100A898B81E090E00E94100A1F
:1024F0008A8B82E090E00E94100A8B8B83E090E050
:102500000E94100A8C8B84E090E00E94100A8D8B50
:1025100085E090E00E94100A8E8B1F8A41E050E017
:1025200062E070E081E090E00E94440840E050E00A
:1025300063E070E081E090E00E94440880E090E079
:102540000E94100A898F81E090E00E94100A8A8F11
:1025500082E090E00E94100A8B8F83E090E00E945E
:10256000100A8C8F84E090E00E94100A8D8F85E025
:1025700090E00E94100A8E8F1F8E41E050E063E0D1
:1025800070E081E090E00E94440840E050E064E0A8
:1025900070E081E090E00E94440880E090E00E94BA
:1025A000100A89A381E090E00E94100A8AA382E0C9
:1025B00090E00E94100A8BA383E090E00E94100A32
:1025C0008CA384E090E00E94100A8DA385E090E047
:1025D0000E94100A8EA31FA241E050E064E070E068
:1025E00081E090E00E94440820E531E040E051E0C5
:1025F00068EE72E0CE0101960E9437090197E9F476
:1026000060EA71E080E193E00E94DC0960E571E03E
:1026100088EE92E00E94DC0948E250E061E070E060
:1026200080E193E00E94B41348E250E061E070E082
:1026300088EE92E00E94B41309C088E2FE01319650
:10264000A8EEB2E001900D928A95E1F780E090E06B
:10265000892B09F4AECD0E940000ABCD1092C903C6
:102660001092C80388EE93E0A0E0B0E08093CA0324
:102670009093CB03A093CC03B093CD0383E692E079
:102680009093C7038093C6038FEF9FEF9093D3037C
:102690008093D20380E290E09093AB038093AA03EF
:1026A0001092AF031092AE0383E792E09093AD03D4
:1026B0008093AC0380911C04811113C01092170405
:1026C0001092160481ED91E0909319048093180400
:1026D0008FE290E090931B0480931A0481E0809332
:1026E0001C040E94C603FC01A385B485109729F43D
:1026F00086E194E0948783870BC08D919C9111971C
:10270000009711F0DC01F9CF86E194E08D939C9362
:102710002585368580911A0490911B04820F931FA2
:10272000968785871092BB031092BA0388EE93E0D8
:10273000A0E0B0E08093BC039093BD03A093BE03E0
:10274000B093BF038BE792E09093B9038093B803F3
:102750000895EE0FFF1F0590F491E02D099481E09C
:1027600090E0F8940C94BB13DC0101C06D934150D0
:0A2770005040E0F70895F894FFCF01
:10277A00B100310032003300340035003600FFFF6B
:10278A00090071007700650072007400FFFFFFFF07
:10279A00800061007300640066006700FFFFFFFFAE
:1027AA0081007A007800630076006200FFFFFFFF75
:1027BA00FFFFFFFF8300000082008000FFFFFFFF92
:1027CA00B100C200C300C400C500C600C700FFFFB5
:1027DA00090000000000000000000000FFFFFFFFEA
:1027EA00800000000000000000000000FFFFFFFF63
:1027FA00810000000000000000000000FFFFFFFF52
:10280A00FFFFFFFF8300000082008000FFFFFFFF41
:10281A00C800C900CA00CB00CC00CD00D100D4004A
:10282A0000000000CE0000000000DA000000B20044
:10283A0000000000D200D300D800D7000000FFFF3C
:10284A00000000000000D500D600D9008500F00085
:10285A00200086008400FFFF8700FFFFFFFFFFFFC5
:10286A0037003800390030002D003D005C00600060
:10287A007900750069006F0070005B005D00D4008C
:10288A0068006A006B006C003B002700B000FFFF85
:10289A0062006E006D002C002E002F008500F000F3
:1028AA00200086008400FFFF8700FFFFFFFFFFFF75
:1028BA0000E100000000000000C18081000000FF6C
:1028CA00FFFFFF0000000035027E033E035C0200AA
:1028DA00000000BC065E071F07DD06FB06D20600E5
:1028EA00000000F104A60A000000000D03DD02D575
:0828FA0002C102B202B10200AA
:1070000055C000006EC000006CC000006AC00000E7
:1070100068C0000066C0000064C0000062C00000DC
:1070200060C000005EC00000FCC400005AC0000048
:1070300058C0000056C0000054C0000052C00000FC
:1070400050C000005DC000004CC000004AC00000FD
:1070500048C0000046C0000044C0000042C000001C
:1070600040C000003EC000003CC000003AC000002C
:1070700038C0000036C0000034C0000032C000003C
:1070800030C000002EC000002CC000002AC000004C
:1070900028C0000026C0000024C0000022C000005C
:1070A00020C000001EC000001CC0000011241FBE34
:1070B000CFEFDAE0DEBFCDBF11E0A0E0B1E0E6E463
:1070C000FFE702C005900D92A63AB107D9F711E08B
:1070D000A6EAB1E001C01D92AF3BB107E1F74FD383
:1070E00030C78ECFF89410926F001092810081E02B
:1070F00085BF15BE47985D9A289A0C9400000895A4
:107100001F920F920FB60F9211242F938F939F937C
:10711000EF93FF9310928500109284008091A60156
:107120009091A701009741F001979093A701809358
:10713000A601892B09F45D9A8091A8019091A9017B
:10714000009741F001979093A9018093A801892BA2
:1071500009F4289A8091AC019091AD010196909329
:10716000AD018093AC01E0E0F0E0859194918F5FF8
:107170009F4F49F08091AA019091AB0101969093A5
:10718000AB018093AA01FF91EF919F918F912F9175
:107190000F900FBE0F901F90189584E08093E90028
:1071A0000DC08091E8008B778093E80003C08EB318
:1071B000882351F08091E80082FFF9CF8091E800A8
:1071C00085FFEFCF8091F1000895982F83E08093A1
:1071D000E9008091E80085FD0DC08091E8008E7780
:1071E0008093E80003C08EB3882369F08091E800A3
:1071F00080FFF9CF9093F1005D9884E690E0909342
:10720000A7018093A60108954F925F926F927F929B
:107210008F929F92AF92BF92CF92DF92EF92FF92A6
:107220000F931F93CF93DF9384E08093E9008091C5
:10723000E80082FF57C2289884E690E09093A90165
:107240008093A801AADF182F853481F48CE49DE196
:107250009093AB018093AA0107B600FCFDCFF9998A
:10726000FECF81E180935700E89503C0843519F47F
:1072700094DF8DE00DC28C34E1F38035D1F3843797
:1072800021F484E4A2DF80E003C2813611F489E5B1
:10729000FFC18134B1F481DF182F7FDF90E0880FC8
:1072A000991FAA2797FDA095BA2F312F330F20E001
:1072B000442737FD4095542F822B932BA42BB52BBD
:1072C000B8C1803711F483E5E3C1833549F4C0E0E8
:1072D000D1E089917ADF21E0C730D207D1F7D9C157
:1072E000863521F481E371DF80E3D2C1833731F445
:1072F00087E86BDF85E969DF8EE1CAC18536B9F4BD
:10730000E0E0F0E093E085E090935700E89507B661
:1073100000FCFDCF80935700E89507B600FCFDCF39
:10732000E058FF4FA0E7E030FA0771F7A2CF8237AD
:1073300039F4E1E0F0E089E0809357008491A8C13E
:10734000863439F4E0E0F0E089E0809357008491DE
:107350009FC18E3439F4E3E0F0E089E08093570078
:10736000849196C1813539F4E2E0F0E089E08093C0
:10737000570084918DC1823631F489E526DF80E0A3
:1073800024DF80E885C1823419F0873609F0E5C032
:107390001092AB011092AA0100DF082FFEDEF82E3A
:1073A000FCDE682E8554823008F071C1902F80E099
:1073B000CF2DD0E0C82BD92B10926F00173609F0D3
:1073C0004BC081E180935700E895DD24CC24C39421
:1073D0003FC0E090AF01F090B0010091B101109179
:1073E000B201B6E46B16D9F4ED2DF0E0EE29FF29D9
:1073F000E4918E2FEADEDD2081F082E090E0A0E0D3
:10740000B0E0E80EF91E0A1F1B1FE092AF01F092D8
:10741000B0010093B1011093B201DC2418C0D8016F
:10742000C701B695A7959795879575D5CEDE82E06D
:1074300090E0A0E0B0E0E80EF91E0A1F1B1FE092EA
:10744000AF01F092B0010093B1011093B201219706
:10745000209709F0BECF7DC08090AF019090B00121
:10746000A090B101B090B20196E4691609F05DC038
:1074700083E0F40180935700E89507B600FCFDCF48
:1074800054C0F6E46F1661F5772031F1E090AF015A
:10749000F090B0010091B1011091B2017EDED82EC2
:1074A000CC24852D90E08C299D29F7010C01409278
:1074B0005700E895112482E090E0A0E0B0E0E80EEB
:1074C000F91E0A1F1B1FE092AF01F092B00100935A
:1074D000B1011093B20102C060DE582E742423C0A3
:1074E000E090AF01F090B0010091B1011091B201B4
:1074F00016950795F794E79450DE682FC70113D5CA
:107500008091AF019091B001A091B101B091B20111
:107510000296A11DB11D8093AF019093B001A0937D
:10752000B101B093B201219704C0552477244424BB
:107530004394209709F0A5CF96E4691641F485E0BD
:10754000F40180935700E89507B600FCFDCF8DE06D
:107550003CDE82E080936F009CC0833471F4009124
:10756000AF011091B00119DE90E021E0F8010C01AB
:1075700020935700E89511247CCE833619F5E090CE
:10758000AF01F090B0010091B1011091B20105DEA0
:10759000F701E16090E021E00C0120935700E895AD
:1075A000112482E090E0A0E0B0E0E80EF91E0A1F8E
:1075B0001B1FE092AF01F092B0010093B101109354
:1075C000B20157CE8D3661F4E091AF01F091B00178
:1075D00085E080935700E89507B600FCFDCF49CEC3
:1075E000823551F4E091AF01F091B0010591149111
:1075F000812FEBDD802F4CC0843421F5E090AF016A
:10760000F090B0010091B1011091B201169507956B
:10761000F794E794C2DD682FC70185D48091AF014C
:107620009091B001A091B101B091B2010296A11D5B
:10763000B11D8093AF019093B001A093B101B093BD
:10764000B20117CE843609F5E090AF01F090B00199
:107650000091B1011091B201D801C701B695A7956B
:107660009795879558D4B1DD82E090E0A0E0B0E036
:10767000E80EF91E0A1F1B1FE092AF01F092B00145
:107680000093B1011093B20104C08B3111F08FE36C
:107690009CDD83E08093E9009091E8008091E80010
:1076A0008E778093E80095FF04C010C08EB38823C6
:1076B000C9F08091E80080FFF9CF8091E8008E77D3
:1076C0008093E80003C08EB3882361F08091E800C6
:1076D00080FFF9CF84E08093E9008091E8008B7708
:1076E0008093E800DF91CF911F910F91FF90EF9071
:1076F000DF90CF90BF90AF909F908F907F906F90D2
:107700005F904F9008959091B701892F8F778132C4
:1077100049F58091B8018032A1F0813219F5913A92
:1077200009F58091E800877F8093E8008CE091E084
:1077300067E070E027D28091E8008B778093E800C3
:107740000895913279F48091E800877F8093E80072
:107750008CE091E067E070E079D28091E8008E776C
:107760008093E800089582E061EC42E0D1D083E0AC
:1077700061E842E1CDD084E060E842E1C9C01F93F6
:10778000209100081092000844B714BE88E10FB69B
:10779000F89480936000109260000FBE80E8E0E0F3
:1077A000F0E00FB6F89480936100E09361000FBEA3
:1077B00031E035BF92E095BF3F9A209A559A809369
:1077C00061001092610047985D9A289A1092890092
:1077D0008AEF8093880090936F0083E0809381000C
:1077E000859194918F5F9F4F11F03093AE01942F4C
:1077F00041FF19C0809109012817A9F08093000862
:10780000789480911301882339F08091AC01909194
:10781000AD018F5E9240C8F310920008F89481E0A9
:10782000809313010CC090FF04C08091AE018823A7
:1078300051F493FF09C080910901281729F0809124
:10784000AE01882309F04EDCD4D078941092AB01BD
:107850001092AA011EEF20C0D7DC4BD38091AA0161
:107860009091AB0181549F4110F0109213018091CF
:10787000B3019091B40101969093B4018093B30148
:10788000292F97FF03C0512F591B252F220F28178F
:1078900010F4479801C0479A809113018823E1F6BC
:1078A0008091E00081608093E0001CDC80E090E04B
:1078B0001F910895FA01923049F0933061F09130B0
:1078C000F9F484E191E022E130E01EC086E291E02B
:1078D0002EE330E019C0882329F484E691E024E007
:1078E00030E012C0813029F488E691E022E230E0F5
:1078F0000BC0823029F48CE891E028E130E004C02C
:1079000080E090E020E030E091838083C901089519
:107910008093E9008091EB0081608093EB001092EE
:10792000ED006093EC004093ED008091EE00881F25
:107930008827881F08958091B70188238CF403C09D
:107940008EB38823B1F08091E80082FFF9CF809157
:10795000E8008B778093E80008958EB3882349F080
:107960008091E80080FFF9CF8091E8008E778093C6
:10797000E8000895EF92FF920F931F9345D04CD0EB
:1079800008ED10E0F80180818F7780838081806826
:10799000808380818F7D808319BC1EBA1092B501CF
:1079A00080EEE82EF12CF70180818B7F8083F80137
:1079B00080818160808380E060E042E0A9DFE1EEC9
:1079C000F0E080818E7F8083E2EEF0E08081816054
:1079D0008083808188608083F70180818E7F8083AF
:1079E000F8018081806180831F910F91FF90EF905B
:1079F0000895E7EDF0E08081816080838AE482BFB2
:107A000081E08093B601B6CFE8EDF0E080818E7F13
:107A100080831092E20008951092DA001092E10043
:107A200008951F920F920FB60F9211242F933F9338
:107A30004F935F936F937F938F939F93AF93BF9376
:107A4000EF93FF938091DA0080FF1BC08091D800F4
:107A500080FF17C08091DA008E7F8093DA008091DA
:107A6000D90080FF0BC080E189BD82E189BD09B4E6
:107A700000FEFDCF81E08EBB3BD203C019BC1EBA15
:107A800037D28091E10080FF17C08091E20080FF33
:107A900013C08091E2008E7F8093E2008091E2002B
:107AA00080618093E2008091D80080628093D8004A
:107AB00019BC85E08EBB1CD28091E10084FF2CC0F4
:107AC0008091E20084FF28C080E189BD82E189BD08
:107AD00009B400FEFDCF8091D8008F7D8093D8003F
:107AE0008091E1008F7E8093E1008091E2008F7EA3
:107AF0008093E2008091E20081608093E2008091B7
:107B0000B501882331F48091E30087FD02C081E054
:107B100001C084E08EBBECD18091E10083FF21C0E5
:107B20008091E20083FF1DC08091E100877F8093F8
:107B3000E10082E08EBB1092B5018091E1008E7F62
:107B40008093E1008091E2008E7F8093E20080913B
:107B5000E20080618093E20080E060E042E0D8DEF5
:107B6000C7D1FF91EF91BF91AF919F918F917F917D
:107B70006F915F914F913F912F910F900FBE0F909A
:107B80001F9018959C014091BD015091BE01461770
:107B9000570718F4F90190E044C06115710511F020
:107BA000AB01F8CF8091E8008E778093E80040E049
:107BB00050E0F0CF8EB3882309F444C0853009F437
:107BC00043C08091E80083FF02C081E00895809166
:107BD000E80082FD31C08091E80080FF22C08091E2
:107BE000F3009091F200782F60E0292F30E0262BEF
:107BF000372B07C081918093F100415050402F5F97
:107C00003F4F4115510519F02830310598F390E0A8
:107C10002830310509F491E08091E8008E77809357
:107C2000E8004115510531F6992321F605C08EB3C0
:107C3000882341F0853041F08091E80082FFF7CF42
:107C400080E0089582E0089583E008959C01611525
:107C5000710529F48091E8008B778093E800F901A1
:107C600026C08EB3882391F1853091F18091E80090
:107C700083FF02C081E008958091E80082FFF1CF88
:107C800006C08091F10081936150704059F02091BD
:107C9000F3008091F200322F20E090E0822B932BB2
:107CA000892B79F78091E8008B778093E800611544
:107CB0007105B9F605C08EB3882341F0853041F0D7
:107CC0008091E80080FFF7CF80E0089582E008957A
:107CD00083E008950F931F93DF93CF9300D0CDB728
:107CE000DEB7E7EBF1E08091F100819381E0EF3BBB
:107CF000F807C9F708DD8091E80083FFE4C08091B0
:107D0000B7019091B801953009F46DC0963040F4F8
:107D1000913081F1913070F0933009F0D4C02AC0D5
:107D2000983009F4A3C0993009F4B2C0963009F034
:107D3000CAC07CC0803809F4C6C0823809F0C3C00C
:107D40008091BB0187708093E9008091EB001092D5
:107D5000E9002091E800277F2093E80090E025E0EB
:107D6000969587952A95E1F781708093F10010929E
:107D7000F10087C0882319F0823009F0A4C08F7108
:107D8000823009F0A0C08091B901882331F520919B
:107D9000BB01277009F497C02093E9008091EB00A4
:107DA00080FF1BC0933021F48091EB00806213C0F0
:107DB0008091EB0080618093EB0081E090E002C055
:107DC000880F991F2A95E2F78093EA001092EA0043
:107DD0008091EB0088608093EB001092E900809125
:107DE000E800877F51C0882309F06DC01091B90168
:107DF0001F770FB7F8948091E800877F8093E800A1
:107E00009ADD8091E80080FFFCCF8091E3008078CC
:107E1000812B8093E30080688093E300112311F4A9
:107E200082E001C083E08EBB0FBF4DC0805882301E
:107E300008F049C08091B9019091BA016091BB01ED
:107E4000AE014F5F5F4F36DDBC01009709F43BC0C8
:107E50008091E800877F8093E80089819A8192DE93
:107E60008091E8008B778093E8002DC0803859F529
:107E70008091E800877F8093E8008091B50180932E
:107E8000F1008091E8008E778093E80054DD1BC0FC
:107E90008823C9F49091B9019230A8F48091E80048
:107EA000877F8093E8009093B50145DD8091B5010F
:107EB000882331F48091E30087FD02C081E001C096
:107EC00084E08EBB50DC8091E80083FF0AC0809183
:107ED000EB0080628093EB008091E800877F8093C5
:107EE000E8000F900F90CF91DF911F910F910895AF
:107EF00008951F938EB3882361F01091E9001092CA
:107F0000E9008091E80083FF01C0E4DE1770109360
:107F1000E9001F910895F999FECF92BD81BDF89AAD
:107F2000992780B50895262FF999FECF1FBA92BDE3
:107F300081BD20BD0FB6F894FA9AF99A0FBE01964A
:067F40000895F894FFCF44
:107F46004341544552494E41007700080000000065
:107F5600000008011201100102000008412341003F
:107F660001000201000109023E00020100803209FF
:107F7600040000010202010005240010010424028D
:107F8600040524060001070582030800FF09040111
:107F960000020A000000070504021000010705831D
:107FA6000210000104030904220341007200640068
:107FB600750069006E006F002000590075006E00A4
:107FC60020002000200020002000000018034100AF
:107FD60072006400750069006E006F0020004C009E
:067FE6004C004300000006
:040000030000700089
:00000001FF